:020000020000FC
:100000000C9450000C9482000C94C8000C94800056
:080010000C94CB000C94DD0000
:040028000C94F9003B
:040040000C947901A2
:1000A00000E10EBF0FEF0DBF0AEA00936A0002E005
:1000B0000ABF0FE009BF07E003BF0EEC02BF05E077
:1000C00005BD0EEC04BD00E407BF0FEF0ABB04BB87
:1000D00007BB00241124332444240027112722279E
:1000E000332744275527662777279927A2E0B0E1D1
:1000F000C2E5D0E1EE27FF2778941BBB0C947D006E
:1001000031E01895703019F1713001F0603011F064
:10011000613049F00EEC02BF01E007BF0BEA00932B
:100120006A0061E0189549931394483008F420F070
:10013000440C43940C949D00440C442701E007BFF9
:100140000EEC02BF0AEA00936A0060E01895603086
:1001500011F0613049F00EEC02BF01E007BF0BEA7D
:1001600000936A0061E018954D930394483008F4B9
:1001700020F0330C33940C94BE00330C442701E080
:1001800007BF0EEC02BF0AEA00936A0060E0189510
:1001900033E071E01895603011F0613021F000E13A
:1001A00009BF60E018950AEA00936A0060E09927A9
:1001B00098BB30E000E407BF1895603011F0613063
:1001C00051F078940EEC02BF01E007BF03E000930A
:1001D0003A0061E018954A3040F0443130F40AEEBC
:1001E00000936A0008E009BF189508E009BF662778
:1001F0001895303069F03130F1F0323019F1333088
:10020000E1F13430E9F13530C9F03630C9F01895F4
:100210000EEC04BDE13039F010E023952A3051F4A2
:100220002227E1E0189511E023952A3019F4EE27F2
:1002300022271895189512E01BBB18950C945B01AA
:100240000C9466010EEC04BD583221F4552730E0C1
:100250000C940801E13041F010E0239553952530CE
:1002600059F42227E1E01895539514E023952530A1
:1002700019F4EE2722271895189518E01BBB18953E
:100280000EEC04BD5C3321F450E030E00C94080126
:10029000E13041F010E023955395233059F42227A3
:1002A000E1E01895539511E02395273019F4EE27D6
:1002B0002227189518950EEC04BD583219F438E031
:1002C0000C943D01539510E11BBB18950CE904BD3E
:1002D000E13039F010E02395283051F42227E1E095
:1002E000189510E123952C3019F4EE272227189544
:1002F000189578940EEC02BF43954C3309F018958D
:10030000703019F0713051F018950EEC04BD00E416
:1003100007BF35BA32E02227442718952227442701
:100320000EEC04BD00E407BF45BA011409F451F016
:1003300010E11BBB11249395442498BB9330A9F082
:1003400030E01895341451F09395442498BB35E06F
:100350000C945B01933049F030E0189534E00FEFD6
:1003600005BB90E098BB4424189508E009BF36E02F
:08037000A1E0B0E198BB189573
:00000001FF
